:100000000C9446000C9465000C9465000C946500FB
:100010000C9465000C9465000C9465000C946500CC
:100020000C9465000C9465000C9465000C946500BC
:100030000C9465000C9465000C9465000C946500AC
:100040000C9465000C9465000C9465000C9465009C
:100050000C9465000C9465000C9465000C9465008C
:100060000C9465000C9465000C9465000C9465007C
:100070000C9465000C9465000C9465000C9465006C
:100080000C9465000C9465000C94650011241FBE4F
:10009000CFEFD0E4DEBFCDBF11E0A0E0B1E0EAEAEF
:1000A000F1E000E00BBF02C007900D92AE30B10747
:1000B000D9F721E0AEE0B1E001C01D92A231B20754
:1000C000E1F70E947E000C94D3000C940000CF93C3
:1000D000C82F8A3019F48DE00E9467008091C0001B
:1000E00085FFFCCFC093C60080E090E0CF910895DB
:1000F000EAE7F0E08081806E808308958FEF84B915
:1001000015B88AB91BB80E94780080917800909148
:1001100079009093100180930F018037910518F4B6
:1001200021E020930E019C01205731092037310531
:1001300018F423E020930E019C01205E3109203742
:10014000310518F427E020930E019C012055314021
:100150002037310518F42FE020930E019C01205C1C
:1001600031402037310518F42FE120930E019C0116
:10017000205332402037310518F42FE320930E012D
:100180009C01205A32402037310518F42FE7209384
:100190000E018031934018F08FEF80930E01809113
:0A01A0000E0185B9B2CFF894FFCF2D
:0E01AA000000000200000000670000000000DE
:00000001FF
